:100000000C946B000C941C030C9443030C946A0333
:100010000C9488000C9488000C9488000C94880040
:100020000C9488000C9488000C9488000C94880030
:100030000C9488000C9488000C9488000C94880020
:100040000C9488000C9488000C9488000C94880010
:100050000C94880007634236B79BD8A71A396856B4
:1000600018AEBAAB558C1D3CB7CC5763BD6DEDFDDA
:10007000753EF6177231BF000000803F0800000097
:10008000BE922449123EABAAAA2ABECDCCCC4C3E8D
:1000900000000080BEABAAAAAA3E00000000BF007C
:1000A0000000803F0000000000084178D3BB438778
:1000B000D1133D190E3CC3BD4282AD2B3E68EC828C
:1000C00076BED98FE1A93E4C80EFFFBE01C4FF7F11
:1000D0003F000000000011241FBECFE5D8E0DEBFC6
:1000E000CDBF10E0A0E6B0E0E2E9F0E102C005908B
:1000F0000D92A036B107D9F720E0A0E6B0E001C02C
:100100001D92A636B207E1F70E94F7010C9447084A
:100110000C94000080E00E946D040E941D0180E0AC
:100120000E94910360E080E00E94E7010895CF9370
:10013000DF93CDB7DEB72A970FB6F894DEBF0FBEB8
:10014000CDBFCE0101962AE0FC0111922A95E9F774
:1001500021E0298322E02A8323E02B8360E00E94B0
:100160005504698170E080E090E00E94950160E0B4
:10017000CE0102960E9455046A8170E080E090E012
:100180000E94950160E0CE0103960E9455046B81A8
:1001900070E080E090E00E9495012A960FB6F894F6
:1001A000DEBF0FBECDBFDF91CF910895CF93C82F93
:1001B00085B38F709C2F907F892B85BB40E060E0DA
:1001C00083E00E948D0240E061E083E00E948D02A6
:1001D00041E062E083E00E948D02000040E062E0C6
:1001E00083E00E948D0232E43A95F1F700C025B316
:1001F00030E1C39FC0011124922F9F70892B85BBD2
:1002000040E060E083E00E948D0240E061E083E036
:100210000E948D0241E062E083E00E948D020000B6
:1002200040E062E083E00E948D028DEE92E0019753
:10023000F1F700C00000CF910895CF93C4E006C04D
:1002400041E06C2F82E00E94FE01CF5FC830C0F316
:1002500041E060E083E00E94FE0141E061E083E074
:100260000E94FE0141E062E083E00E94FE0187E817
:1002700093E10197F1F700C0000082E00E94D600F0
:1002800088E20E94D6008CE00E94D60081E00E94A5
:10029000D600CF910895CF93882309F444C0C82F86
:1002A00085B38F709C2F907F892B85BB41E060E0E8
:1002B00083E00E948D0240E061E083E00E948D02B5
:1002C00041E062E083E00E948D02000040E062E0D5
:1002D00083E00E948D0232E43A95F1F700C025B325
:1002E00030E1C39FC0011124922F9F70892B85BBE1
:1002F00041E060E083E00E948D0240E061E083E045
:100300000E948D0241E062E083E00E948D020000C5
:1003100040E062E083E00E948D0283EF91E001976C
:10032000F1F700C00000CF910895CF92DF92EF92D5
:10033000FF921F93CF93DF93CDB7DEB760970FB6D1
:10034000F894DEBF0FBECDBF6B017C01672B682B1D
:10035000692B19F480E30E944B0110E015C0C7011E
:10036000B6012AE030E040E050E00E942508E1E0DC
:10037000F0E0EC0FFD1FE10FF11D605D60831F5F7A
:10038000C22ED32EE42EF52EC114D104E104F104C3
:1003900031F70DC0E12FF0E0319781E090E08C0F54
:1003A0009D1FE80FF91F80810E944B011150111110
:1003B000F1CF60960FB6F894DEBF0FBECDBFDF91D0
:1003C000CF911F91FF90EF90DF90CF90089541E083
:1003D0000E94FE01813029F0823029F0843029F416
:1003E000089581E0089582E0089580E008950E94D4
:1003F0008A000E94970080E090E00895683008F03D
:1004000080C0813031F138F0823009F440C083304F
:1004100009F45AC078C041110DC02AB381E090E0C0
:1004200002C0880F991F6A95E2F7809582238ABBE4
:1004300080E00895413009F068C02AB381E090E07F
:1004400002C0880F991F6A95E2F7822B8ABB80E071
:10045000089541110DC027B381E090E002C0880FDC
:10046000991F6A95E2F78095822387BB80E0089503
:10047000413009F04CC027B381E090E002C0880F02
:10048000991F6A95E2F7822B87BB80E0089541119E
:100490000DC024B381E090E002C0880F991F6A95D7
:1004A000E2F78095822384BB80E00895413089F58E
:1004B00024B381E090E002C0880F991F6A95E2F7AB
:1004C000822B84BB80E0089541110DC021B381E0EF
:1004D00090E002C0880F991F6A95E2F78095822309
:1004E00081BB80E008954130B1F421B381E090E018
:1004F00002C0880F991F6A95E2F7822B81BB80E0CA
:10050000089582E0089581E0089584E0089584E0EC
:10051000089584E0089584E00895683008F080C06C
:10052000813031F138F0823009F440C0833009F471
:100530005AC078C041110DC02BB381E090E002C0D9
:10054000880F991F6A95E2F7809582238BBB80E024
:100550000895413009F068C02BB381E090E002C0FB
:10056000880F991F6A95E2F7822B8BBB80E0089574
:1005700041110DC028B381E090E002C0880F991F9F
:100580006A95E2F78095822388BB80E00895413028
:1005900009F04CC028B381E090E002C0880F991F99
:1005A0006A95E2F7822B88BB80E0089541110DC067
:1005B00025B381E090E002C0880F991F6A95E2F7A9
:1005C0008095822385BB80E00895413089F525B36D
:1005D00081E090E002C0880F991F6A95E2F7822BB4
:1005E00085BB80E0089541110DC022B381E090E009
:1005F00002C0880F991F6A95E2F78095822382BB1B
:1006000080E008954130B1F422B381E090E002C06F
:10061000880F991F6A95E2F7822B82BB80E00895CC
:1006200082E0089581E0089583E0089583E00895CD
:1006300083E0089583E008951F920F920FB60F9202
:1006400011242F933F934F935F936F937F938F93D7
:100650009F93AF93BF93EF93FF93E0916400F0916A
:1006600065000995FF91EF91BF91AF919F918F9197
:100670007F916F915F914F913F912F910F900FBE9E
:100680000F901F9018951F920F920FB60F92112482
:100690002F933F934F935F936F937F938F939F938A
:1006A000AF93BF93EF93FF93E0916200F0916300EB
:1006B0000995FF91EF91BF91AF919F918F917F919C
:1006C0006F915F914F913F912F910F900FBE0F90BF
:1006D0001F9018951F920F920FB60F9211242F930F
:1006E0003F934F935F936F937F938F939F93AF93BA
:1006F000BF93EF93FF93E0916000F0916100099543
:10070000FF91EF91BF91AF919F918F917F916F91E9
:100710005F914F913F912F910F900FBE0F901F90BF
:10072000189511B8813069F028F0823089F0833053
:10073000B1F01BC081B18E7F81B981B18D7F81B94C
:1007400014C081B1816081B981B18D7F81B90DC043
:1007500081B18E7F81B981B1826081B906C081B1DA
:10076000816081B981B1826081B961B1637070E0EB
:1007700080E090E00E94A7059B01AC0160E070E082
:1007800080E890E40E94AE069B01AC010E949804B0
:100790009B01AC0160E070E080E89FE40E940405EA
:1007A0000E94760560B9089586B7806886BF86B7CF
:1007B000806286BF86B7846086BF06B607FEFDCF1F
:1007C00081B1887F883011F480E0089581E0089538
:1007D000662319F06130A9F029C083B986B7806813
:1007E00086BF86B7846086BF06B607FEFDCF81B19F
:1007F000887F8831E1F081B1887F8032D1F483E055
:1008000008958F5F83B986B7806886BF86B7846096
:1008100086BF06B607FEFDCF81B1887F803459F0D0
:1008200081B1887F883449F487E00895089582E093
:10083000089585E0089586E0089588E0089586B7D4
:100840008F7D86BF86B7806886BF86B7806186BF8A
:1008500086B7846086BF06B604FCFDCF0895FC0110
:10086000662319F0613029F007C086B7806486BF1F
:1008700003C086B78F7B86BF96B7906896BF96B742
:10088000946096BF06B607FEFDCF83B1808381B129
:10089000887F803531F081B1887F883521F48DE003
:1008A00008958CE008958EE00895CF93DF93EC01D6
:1008B0000E94D40381110EC061E080EA0E94E80327
:1008C000863041F461E0CE010E942F048D3011F496
:1008D0000E941F04DF91CF9108958130F1F028F03C
:1008E000823099F0833049F020C083B78F7B83BF7B
:1008F00083B7877F83BF84E0089583B7806483BF15
:1009000083B7877F83BF84E0089583B78F7B83BFDE
:1009100083B7886083BF84E0089583B7806483BF12
:1009200083B7886083BF84E0089581E008955058BC
:10093000BB27AA270E94AF040C9407060E94F90562
:1009400038F00E94000620F039F49F3F19F426F495
:100950000C94F6050EF4E095E7FB0C94E205E92F04
:100960000E94180658F3BA176207730784079507A1
:1009700020F079F4A6F50C943A060EF4E0950B2ECF
:10098000BA2FA02D0B01B90190010C01CA01A001E1
:100990001124FF27591B99F0593F50F4503E68F13C
:1009A0001A16F040A22F232F342F4427585FF3CF7D
:1009B000469537952795A795F0405395C9F77EF44E
:1009C0001F16BA0B620B730B840BBAF09150A1F097
:1009D000FF0FBB1F661F771F881FC2F70EC0BA0F1D
:1009E000621F731F841F48F4879577956795B795A5
:1009F000F7959E3F08F0B0CF9395880F08F09927A0
:100A0000EE0F9795879508950E9418050C94070698
:100A10000E94000658F00E94F90540F029F45F3F5B
:100A200029F00C94E20551110C943B060C94F60548
:100A30000E94180668F39923B1F3552391F3951B8F
:100A4000550BBB27AA2762177307840738F09F5FEF
:100A50005F4F220F331F441FAA1FA9F335D00E2E5C
:100A60003AF0E0E832D091505040E695001CCAF7C9
:100A70002BD0FE2F29D0660F771F881FBB1F26178C
:100A800037074807AB07B0E809F0BB0B802DBF0163
:100A9000FF2793585F4F3AF09E3F510578F00C9432
:100AA000E2050C943B065F3FE4F3983ED4F3869551
:100AB00077956795B795F7959F5FC9F7880F911D53
:100AC0009695879597F90895E1E0660F771F881F3F
:100AD000BB1F621773078407BA0720F0621B730BF2
:100AE000840BBA0BEE1F88F7E09508950E9420064C
:100AF00088F09F5798F0B92F9927B751B0F0E1F0DF
:100B0000660F771F881F991F1AF0BA95C9F714C08E
:100B1000B13091F00E943A06B1E008950C943A0683
:100B2000672F782F8827B85F39F0B93FCCF38695C7
:100B300077956795B395D9F73EF490958095709524
:100B400061957F4F8F4F9F4F0895E89409C097FBA1
:100B50003EF490958095709561957F4F8F4F9F4F94
:100B60009923A9F0F92F96E9BB279395F6958795D8
:100B700077956795B795F111F8CFFAF4BB0F11F49B
:100B800060FF1BC06F5F7F4F8F4F9F4F16C0882342
:100B900011F096E911C0772321F09EE8872F762F78
:100BA00005C0662371F096E8862F70E060E02AF0B9
:100BB0009A95660F771F881FDAF7880F96958795A5
:100BC00097F9089597F99F6780E870E060E00895CD
:100BD0009F3F31F0915020F4879577956795B795B1
:100BE000880F911D9695879597F908959FEF80EC52
:100BF000089500240A941616170618060906089583
:100C000000240A9412161306140605060895092EE8
:100C10000394000C11F4882352F0BB0F40F4BF2B57
:100C200011F460FF04C06F5F7F4F8F4F9F4F089597
:100C300057FD9058440F551F59F05F3F71F047958D
:100C4000880F97FB991F61F09F3F79F08795089572
:100C5000121613061406551FF2CF4695F1DF08C091
:100C6000161617061806991FF1CF869571056105AE
:100C700008940895E894BB2766277727CB0197F956
:100C800008950E9454060C9407060E94F90538F056
:100C90000E94000620F0952311F00C94E2050C94BC
:100CA000F60511240C943B060E94180670F3959FDC
:100CB000C1F3950F50E0551F629FF001729FBB2753
:100CC000F00DB11D639FAA27F00DB11DAA1F649FEF
:100CD0006627B00DA11D661F829F2227B00DA11DA2
:100CE000621F739FB00DA11D621F839FA00D611D28
:100CF000221F749F3327A00D611D231F849F600D49
:100D0000211D822F762F6A2F11249F5750409AF071
:100D1000F1F088234AF0EE0FFF1FBB1F661F771FFD
:100D2000881F91505040A9F79E3F510580F00C94C8
:100D3000E2050C943B065F3FE4F3983ED4F38695BE
:100D400077956795B795F795E7959F5FC1F7FE2B68
:100D5000880F911D9695879597F90895FA01EE0FE2
:100D6000FF1F309621053105A1F16115710561F470
:100D70008038BFE39B0749F168949038810561F0A2
:100D80008038BFEF9B0741F099234AF5FF3FE1050B
:100D90003105210519F1E8940894E795D901AA23B2
:100DA00029F4AB2FBE2FF85FD0F310C0FF5F70F4B3
:100DB000A695E0F7F73950F019F0FF3A38F49F772D
:100DC0009F930DD00F9007FC9058089546F00C9417
:100DD000F60560E070E080E89FE308954FE79F77B5
:100DE0005F934F933F932F930E94A9072F913F91B9
:100DF0004F915F910E9441060C94060729F416F06A
:100E00000C94E2050C943A060C94F6050E94200618
:100E1000A8F39638A0F707F80F92E8942BE33AEA84
:100E200048EB5FE70E9457060F920F920F924DB763
:100E30005EB70F920E94F107E4E5F0E00E943807E8
:100E40004F915F91EF91FF91E595EE1FFF1F49F0E4
:100E5000FE57E0684427EE0F441FFA95E1F74195ED
:100E6000550B0E946B070F9007FE0C945F070895C7
:100E7000DF93CF931F930F93FF92EF92DF927B014B
:100E80008C01689406C0DA2EEF010E945406FE0120
:100E9000E894A5912591359145915591A6F3EF01DF
:100EA0000E94AF04FE019701A801DA9469F7DF9070
:100EB000EF90FF900F911F91CF91DF9108959B01CB
:100EC000AC0160E070E080E89FE30C9404050C94B2
:100ED000E2050C94E8050E942006D8F39923C9F393
:100EE000940F511DA3F39150504094F059F0882372
:100EF00032F0660F771F881F91505040C1F79E3F18
:100F000051052CF7880F911D9695879597F90895AF
:100F10005F3FACF0983E9CF0BB2786957795679530
:100F2000B79508F4B1609395C1F7BB0F58F711F46A
:100F300060FFE8CF6F5F7F4F8F4F9F4FE3CF0C94E1
:100F40003B0616F00C94E8050C94F60568940C9496
:100F5000E2050E942006A8F39923C1F3AEF3DF93C4
:100F6000CF931F930F93FF92C92FDD2788232AF079
:100F70002197660F771F881FDAF720E030E040E8FE
:100F80005FEB9FE3883920F0803E38F021968F7721
:100F90000E949804ECE7F0E004C00E949804E9EA9B
:100FA000F0E00E9438078B01BE01EC01FB2E6F5769
:100FB00071097595771F880B990B0E94A70528E189
:100FC00032E741E35FE30E945406AF2D9801AE0182
:100FD000FF900F911F91CF91DF910E94AF040C946D
:100FE0000706FA01DC01AA0FBB1F9B01AC01BF572A
:100FF00028F4222733274427507820C0B75190F493
:10100000AB2F0024469537952795011CA395D2F365
:10101000002071F0220F331F441FB395DAF30ED076
:101020000C94970461307105A0E88A07B94630F442
:101030009B01AC016627772788279078309621F0AE
:1010400020833183428353830895A1E21A2EAA1B81
:10105000BB1BFD010DC0AA1FBB1FEE1FFF1FA21768
:10106000B307E407F50720F0A21BB30BE40BF50B65
:10107000661F771F881F991F1A9469F760957095EE
:10108000809590959B01AC01BD01CF010895F89426
:02109000FFCF90
:00000001FF
