S00F0000737072696E74732E7372656302
S11300000C942A000C94A1020C94C8020C94EF02E4
S11300100C9447000C9447000C9447000C94470040
S11300200C9447000C9447000C9447000C94470030
S11300300C9447000C9447000C9447000C94470020
S11300400C9447000C9447000C9447000C94470010
S11300500C94470011241FBECFE5D8E0DEBFCDBF0E
S113006010E0A0E6B0E0E0E3F6E002C005900D92F7
S1130070A837B107D9F720E0A8E7B0E001C01D9286
S1130080AE37B207E1F70E947E010C9416030C947C
S113009000000E94EB0060E080E790E00E946001B5
S11300A061E088E690E00E94600162E080E690E012
S11300B00E946001089580E00E9419012FE38DE001
S11300C093E0215080409040E1F700C0000081E0BF
S11300D00E94A40080E80E94A40081E00E9419010B
S11300E02FE38DE093E0215080409040E1F700C081
S11300F0000081E00E94A40080E80E94A40080E047
S11301000E9419012FE38DE093E02150804090403C
S1130110E1F700C0000081E00E94A40080E80E9492
S1130120A40082E00E9419012FE38DE093E02150A6
S113013080409040E1F700C0000081E00E94A400EC
S113014080E80E94A4000895CF93C82F85B38F70D0
S11301509C2F907F892B85BB40E060E083E00E9468
S1130160120240E061E083E00E94120241E062E09A
S113017083E00E941202000040E062E083E00E94FB
S1130180120232E43A95F1F700C025B330E1C39F7F
S1130190C0011124922F9F70892B85BB40E060E041
S11301A083E00E94120240E061E083E00E941202B8
S11301B041E062E083E00E941202000040E062E05D
S11301C083E00E9412028DEE92E00197F1F700C0E5
S11301D00000CF910895CF93C4E006C041E06C2F96
S11301E082E00E948301CF5FC830C0F341E060E049
S11301F083E00E94830141E061E083E00E94830187
S113020041E062E083E00E94830187E893E1019783
S1130210F1F700C0000082E00E94A40088E20E947E
S1130220A4008CE00E94A40081E00E94A400CF916D
S11302300895CF93C82F85B38F709C2F907F892BFF
S113024085BB41E060E083E00E94120240E061E08F
S113025083E00E94120241E062E083E00E94120205
S1130260000040E062E083E00E94120232E43A952A
S1130270F1F700C025B330E1C39FC0011124922FD0
S11302809F70892B85BB41E060E083E00E941202ED
S113029040E061E083E00E94120241E062E083E01A
S11302A00E941202000040E062E083E00E94120219
S11302B083EF91E00197F1F700C00000CF9108951A
S11302C00F931F93CF938C01862F90E00896880F8D
S11302D0880F880F0E94A400C0E007C0F801EC0F4B
S11302E0F11D80810E941901CF5FC830B8F380E806
S11302F00E94A400CF911F910F9108950E9449007C
S11303000E945B00FDCF683008F080C0813031F17D
S113031038F0823009F440C0833009F45AC078C000
S113032041110DC02AB381E090E002C0880F991FEB
S11303306A95E2F7809582238ABB80E00895413074
S113034009F068C02AB381E090E002C0880F991FC9
S11303506A95E2F7822B8ABB80E0089541110DC0B3
S113036027B381E090E002C0880F991F6A95E2F7F5
S11303708095822387BB80E00895413009F04CC00A
S113038027B381E090E002C0880F991F6A95E2F7D5
S1130390822B87BB80E0089541110DC024B381E016
S11303A090E002C0880F991F6A95E2F78095822336
S11303B084BB80E00895413089F524B381E090E066
S11303C002C0880F991F6A95E2F7822B84BB80E0F4
S11303D0089541110DC021B381E090E002C0880F5F
S11303E0991F6A95E2F78095822381BB80E0089586
S11303F04130B1F421B381E090E002C0880F991F2D
S11304006A95E2F7822B81BB80E0089582E008952B
S113041081E0089584E0089584E0089584E00895D7
S113042084E00895683008F080C0813031F138F0FC
S1130430823009F440C0833009F45AC078C04111B5
S11304400DC02BB381E090E002C0880F991F6A951C
S1130450E2F7809582238BBB80E00895413009F058
S113046068C02BB381E090E002C0880F991F6A95A1
S1130470E2F7822B8BBB80E0089541110DC028B3B5
S113048081E090E002C0880F991F6A95E2F7809599
S1130490822388BB80E00895413009F04CC028B322
S11304A081E090E002C0880F991F6A95E2F7822BE1
S11304B088BB80E0089541110DC025B381E090E030
S11304C002C0880F991F6A95E2F78095822385BB45
S11304D080E00895413089F525B381E090E002C0C1
S11304E0880F991F6A95E2F7822B85BB80E00895F7
S11304F041110DC022B381E090E002C0880F991F22
S11305006A95E2F78095822382BB80E008954130AA
S1130510B1F422B381E090E002C0880F991F6A957C
S1130520E2F7822B82BB80E0089582E0089581E0A7
S1130530089583E0089583E0089583E0089583E0B7
S113054008951F920F920FB60F9211242F933F9389
S11305504F935F936F937F938F939F93AF93BF93C7
S1130560EF93FF93E0917C00F0917D000995FF915A
S1130570EF91BF91AF919F918F917F916F915F9117
S11305804F913F912F910F900FBE0F901F90189590
S11305901F920F920FB60F9211242F933F934F93F4
S11305A05F936F937F938F939F93AF93BF93EF93D7
S11305B0FF93E0917A00F0917B000995FF91EF9110
S11305C0BF91AF919F918F917F916F915F914F9167
S11305D03F912F910F900FBE0F901F9018951F926F
S11305E00F920FB60F9211242F933F934F935F9363
S11305F06F937F938F939F93AF93BF93EF93FF93E7
S1130600E0917800F09179000995FF91EF91BF9105
S1130610AF919F918F917F916F915F914F913F9196
S11306202F910F900FBE0F901F901895F894FFCF45
S1130630040E0E0E1F000100040E0E0E1F0010000B
S10B0640040E0E0E1F0004005D
S9030000FC
