S01A00004D6F76696E675F4361725F50726F6A6563742E73726563EF
S11300000C9431000C9438020C9461020C948E020E
S11300100C9443000C9443000C9443000C94430050
S11300200C9443000C9443000C9443000C94430040
S11300300C9443000C9443000C9443000C94430030
S11300400C9443000C9443000C9443000C94430020
S11300500C944300EF02FA02100305031B0326036A
S1130060310311241FBECFE5D8E0DEBFCDBF20E0B1
S1130070A0E6B0E001C01D92A636B207E1F70E94E7
S113008081000C9467050C940000883228F460E029
S11300900E94990080E0089581E00895883228F450
S11300A061E00E949B0180E0089581E00895883218
S11300B028F460E00E949B0180E0089581E00895A7
S11300C060E080E00E94990060E081E00E94990075
S11300D060E082E00E94990060E083E00E94990061
S11300E060E084E00E94990060E085E00E9499004D
S11300F060E086E00E94990060E087E00E94990039
S1130100089580E10E9445000E94600080E10E9401
S11301104E0060E070E48CE995E40E94870380E17E
S11301200E94570060E070E48CE995E40E94870324
S1130130EDCF982F969596959695953008F0F9C041
S11301408770613031F008F4A4C0623009F451C002
S1130150EFC09130C1F028F0923039F19330B9F109
S1130160E7C04AB321E030E0B90102C0660F771F4F
S11301708A95E2F7CB018095942F98239ABB9BB381
S113018089238BBBD5C047B321E030E0B90102C05D
S1130190660F771F8A95E2F7CB018095942F9823F9
S11301A097BB98B3892388BBC3C044B321E030E034
S11301B0B90102C0660F771F8A95E2F7CB018095DB
S11301C0942F982394BB95B3892385BBB1C041B3C5
S11301D021E030E0B90102C0660F771F8A95E2F78B
S11301E0CB018095942F982391BB92B3892382BB32
S11301F09FC09130C1F028F0923039F19330B9F1B9
S113020097C04AB321E030E0B90102C0660F771FFE
S11302108A95E2F7CB01962F909594239ABB9BB3D2
S1130220892B8BBB85C047B321E030E0B90102C004
S1130230660F771F8A95E2F7CB01962F909594234A
S113024097BB98B3892B88BB73C044B321E030E0DB
S1130250B90102C0660F771F8A95E2F7CB01962F8A
S11302609095942394BB95B3892B85BB61C041B30E
S113027021E030E0B90102C0660F771F8A95E2F7EA
S1130280CB01962F9095942391BB92B3892B82BB7B
S11302904FC09130C1F028F0923039F19330B9F168
S11302A047C04BB321E030E0B90102C0660F771FAD
S11302B08A95E2F7CB01962F909594239BBB9AB332
S11302C0892B8ABB35C048B321E030E0B90102C0B4
S11302D0660F771F8A95E2F7CB01962F90959423AA
S11302E098BB97B3892B87BB23C045B321E030E08B
S11302F0B90102C0660F771F8A95E2F7CB01962FEA
S11303009095942395BB94B3892B84BB11C042B3BD
S113031021E030E0B90102C0660F771F8A95E2F749
S1130320CB01962F9095942392BB91B3892B81BBDB
S1130330089582E00895982F969596959695953010
S113034008F08EC0633008F08DC08770613009F00A
S113035040C09130A1F028F09230F9F0933059F177
S113036083C04BB321E030E0B90102C0660F771FB0
S11303708A95E2F7CB01842B8BBB80E0089548B3C8
S113038021E030E0B90102C0660F771F8A95E2F7D9
S1130390CB01842B88BB80E0089545B321E030E095
S11303A0B90102C0660F771F8A95E2F7CB01842B4F
S11303B085BB80E0089542B321E030E0B90102C07A
S11303C0660F771F8A95E2F7CB01842B82BB80E00E
S11303D00895611144C09130A9F028F0923009F1D8
S11303E0933071F143C04BB321E030E0B90102C056
S11303F0660F771F8A95E2F7CB01809584238BBB28
S113040080E0089548B321E030E0B90102C0660FEE
S1130410771F8A95E2F7CB018095842388BB80E01F
S1130420089545B321E030E0B90102C0660F771F9B
S11304308A95E2F7CB018095842385BB80E00895FB
S113044042B321E030E0B90102C0660F771F8A95FC
S1130450E2F7CB018095842382BB80E00895089560
S113046082E0089583E0089580E0089580E008958F
S11304701F920F920FB60F9211242F933F934F9315
S11304805F936F937F938F939F93AF93BF93EF93F8
S1130490FF93E0916400F0916500309709F00995AD
S11304A0FF91EF91BF91AF919F918F917F916F9148
S11304B05F914F913F912F910F900FBE0F901F901E
S11304C018951F920F920FB60F9211242F933F93FA
S11304D04F935F936F937F938F939F93AF93BF9348
S11304E0EF93FF938091640090916500892B29F02C
S11304F0E0916200F09163000995FF91EF91BF9143
S1130500AF919F918F917F916F915F914F913F91A7
S11305102F910F900FBE0F901F9018951F920F925E
S11305200FB60F9211242F933F934F935F936F93C2
S11305307F938F939F93AF93BF93EF93FF93809198
S1130540640090916500892B29F0E0916000F0919E
S113055061000995FF91EF91BF91AF919F918F91A8
S11305607F916F915F914F913F912F910F900FBEAB
S11305700F901F9018958130F1F028F0823099F097
S1130580833049F020C085B58F7B85BD85B5877FD5
S113059085BD84E0089585B5806485BD85B5877F74
S11305A085BD84E0089585B58F7B85BD85B588605C
S11305B085BD84E0089585B5806485BD85B5886072
S11305C085BD84E0089581E0089590E08730910529
S11305D008F052C0FC01E65DFF4F0C94610585B53F
S11305E0816085BD85B58D7F85BD85B58B7F85BDD6
S11305F084E0089585B5826085BD85B58E7F85BD0F
S113060085B58B7F85BD84E0089585B5816085BD02
S113061085B5826085BD85B58B7F85BD84E00895F1
S113062085B5846085BD85B58D7F85BD85B58E7F97
S113063085BD84E0089585B5816085BD85B58D7FD0
S113064085BD85B5846085BD84E0089585B58460E5
S113065085BD85B58E7F85BD85B5826085BD84E009
S1130660089585B5816085BD85B5826085BD85B5F4
S1130670846085BD84E0089580E008958F929F9200
S1130680AF92BF92CF92DF92EF92FF924B015C0147
S113069020E030E0A9010E945C051816ECF4C12C9E
S11306A0D12C760108B606FEFDCF88B7806488BFDA
S11306B020E030E040E85FE3C701B6010E94AC03EC
S11306C06B017C019B01AC01C501B4010E945C0576
S11306D0181644F384E012C020E030E0A901C501FB
S11306E0B4010E942F04181644F008B606FEFDCF8C
S11306F088B7806488BF84E001C082E0FF90EF90F7
S1130700DF90CF90BF90AF909F908F900895CF923D
S1130710DF92EF92FF9220E030E04AE754E40E9437
S113072034042DEB37E346E859E30E9434040E9475
S113073018046B017C0180E00E94BB0214BC80E0C1
S11307400E94E502C701B6010E943E03FF90EF90AC
S1130750DF90CF9008955058BB27AA270E94C30367
S11307600C940A050E94FC0438F00E94030520F052
S113077039F49F3F19F426F40C94F9040EF4E0952F
S1130780E7FB0C94CA04E92F0E941B0558F3BA171F
S1130790620773078407950720F079F4A6F50C9493
S11307A055050EF4E0950B2EBA2FA02D0B01B901BF
S11307B090010C01CA01A0011124FF27591B99F0D3
S11307C0593F50F4503E68F11A16F040A22F232FDF
S11307D0342F4427585FF3CF469537952795A7952F
S11307E0F0405395C9F77EF41F16BA0B620B730BD6
S11307F0840BBAF09150A1F0FF0FBB1F661F771F47
S1130800881FC2F70EC0BA0F621F731F841F48F4FB
S1130810879577956795B795F7959E3F08F0B0CF84
S11308209395880F08F09927EE0F9795879508956B
S11308300E943D0590F09F3748F4911116F40C94F2
S1130840560560E070E080E89FE3089526F01B16EB
S1130850611D711D811D0C94D0040C94EB040E9445
S1130860A60408F481E008950E9448040C940A0543
S11308700E94030558F00E94FC0440F029F45F3FF5
S113088029F00C94CA0451110C9456050C94F904E3
S11308900E941B0568F39923B1F3552391F3951B2B
S11308A0550BBB27AA2762177307840738F09F5F8D
S11308B05F4F220F331F441FAA1FA9F335D00E2EFA
S11308C03AF0E0E832D091505040E695001CCAF767
S11308D02BD0FE2F29D0660F771F881FBB1F26172A
S11308E037074807AB07B0E809F0BB0B802DBF0101
S11308F0FF2793585F4F3AF09E3F510578F00C94D0
S1130900CA040C9456055F3FE4F3983ED4F38695ED
S113091077956795B795F7959F5FC9F7880F911DF0
S11309209695879597F90895E1E0660F771F881FDC
S1130930BB1F621773078407BA0720F0621B730B8F
S1130940840BBA0BEE1F88F7E0950895990F000801
S1130950550FAA0BE0E8FEEF16161706E807F9078D
S1130960C0F012161306E407F50798F0621B730B28
S1130970840B950B39F40A2661F0232B242B252BA9
S113098021F408950A2609F4A140A6958FEF811D4C
S1130990811D089597F99F6780E870E060E00895ED
S11309A0882371F4772321F09850872B762F07C082
S11309B0662311F499270DC09051862B70E060E0F6
S11309C02AF09A95660F771F881FDAF7880F969595
S11309D0879597F908959F3F31F0915020F48795BA
S11309E077956795B795880F911D9695879597F993
S11309F008959FEF80EC089500240A9416161706B4
S1130A0018060906089500240A94121613061406FB
S1130A1005060895092E0394000C11F4882352F05E
S1130A20BB0F40F4BF2B11F460FF04C06F5F7F4F16
S1130A308F4F9F4F089557FD9058440F551F59F0FD
S1130A405F3F71F04795880F97FB991F61F09F3FB7
S1130A5079F087950895121613061406551FF2CFE0
S1130A604695F1DF08C0161617061806991FF1CF30
S1130A70869571056105089408950E942305A0F0E8
S1130A80BEE7B91788F4BB279F3860F41616B11D6A
S1130A90672F782F8827985FF7CF86957795679586
S1130AA0B11D93959639C8F30895E894BB2766273A
S1130AB07727CB0197F908950E94A60408F48FEFD5
S1130AC00895EE0FFF1F0590F491E02D0994F8941A
S1050AD0FFCF52
S9030000FC
