:100000000C942A000C940D020C9436020C9463029A
:100010000C943C000C943C000C943C000C943C0070
:100020000C943C000C943C000C943C000C943C0060
:100030000C943C000C943C000C943C000C943C0050
:100040000C943C000C943C000C943C000C943C0040
:100050000C943C0011241FBECFE5D8E0DEBFCDBF1D
:1000600020E0A0E6B0E001C01D92A636B207E1F79D
:100070000E9468000C9490020C940000883228F4CE
:1000800060E00E946E0080E0089581E0089560E0E5
:1000900080E00E94700161E081E00E94700160E0F8
:1000A00082E00E94700161E083E00E94700161E0E3
:1000B00084E00E94700160E085E00E94700161E0D0
:1000C00086E00E94700160E087E00E947001089560
:1000D00088E00E943E000E944700FDCF982F969531
:1000E00096959695953008F0F9C08770613031F09B
:1000F00008F4A4C0623009F451C0EFC09130C1F0DF
:1001000028F0923039F19330B9F1E7C04AB321E0D9
:1001100030E0B90102C0660F771F8A95E2F7CB0184
:100120008095942F98239ABB9BB389238BBBD5C012
:1001300047B321E030E0B90102C0660F771F8A950E
:10014000E2F7CB018095942F982397BB98B389232E
:1001500088BBC3C044B321E030E0B90102C0660FE0
:10016000771F8A95E2F7CB018095942F982394BB53
:1001700095B3892385BBB1C041B321E030E0B9011B
:1001800002C0660F771F8A95E2F7CB018095942F06
:10019000982391BB92B3892382BB9FC09130C1F059
:1001A00028F0923039F19330B9F197C04AB321E089
:1001B00030E0B90102C0660F771F8A95E2F7CB01E4
:1001C000962F909594239ABB9BB3892B8BBB85C0AC
:1001D00047B321E030E0B90102C0660F771F8A956E
:1001E000E2F7CB01962F9095942397BB98B3892B78
:1001F00088BB73C044B321E030E0B90102C0660F90
:10020000771F8A95E2F7CB01962F9095942394BBA4
:1002100095B3892B85BB61C041B321E030E0B901C2
:1002200002C0660F771F8A95E2F7CB01962F909553
:10023000942391BB92B3892B82BB4FC09130C1F004
:1002400028F0923039F19330B9F147C04BB321E037
:1002500030E0B90102C0660F771F8A95E2F7CB0143
:10026000962F909594239BBB9AB3892B8ABB35C05C
:1002700048B321E030E0B90102C0660F771F8A95CC
:10028000E2F7CB01962F9095942398BB97B3892BD7
:1002900087BB23C045B321E030E0B90102C0660F3F
:1002A000771F8A95E2F7CB01962F9095942395BB03
:1002B00094B3892B84BB11C042B321E030E0B90173
:1002C00002C0660F771F8A95E2F7CB01962F9095B3
:1002D000942392BB91B3892B81BB089582E008954A
:1002E000982F969596959695953008F08EC0633028
:1002F00008F08DC08770613009F040C09130A1F0E6
:1003000028F09230F9F0933059F183C04BB321E0DB
:1003100030E0B90102C0660F771F8A95E2F7CB0182
:10032000842B8BBB80E0089548B321E030E0B90115
:1003300002C0660F771F8A95E2F7CB01842B88BB3A
:1003400080E0089545B321E030E0B90102C0660FB6
:10035000771F8A95E2F7CB01842B85BB80E0089557
:1003600042B321E030E0B90102C0660F771F8A95E1
:10037000E2F7CB01842B82BB80E00895611144C079
:100380009130A9F028F0923009F1933071F143C017
:100390004BB321E030E0B90102C0660F771F8A95A8
:1003A000E2F7CB01809584238BBB80E0089548B3AE
:1003B00021E030E0B90102C0660F771F8A95E2F7AD
:1003C000CB018095842388BB80E0089545B321E06C
:1003D00030E0B90102C0660F771F8A95E2F7CB01C2
:1003E0008095842385BB80E0089542B321E030E00E
:1003F000B90102C0660F771F8A95E2F7CB0180959D
:10040000842382BB80E00895089582E0089583E00C
:10041000089580E0089580E008951F920F920FB62E
:100420000F9211242F933F934F935F936F937F937A
:100430008F939F93AF93BF93EF93FF93E0916400EB
:10044000F0916500309709F00995FF91EF91BF9108
:10045000AF919F918F917F916F915F914F913F915C
:100460002F910F900FBE0F901F9018951F920F9213
:100470000FB60F9211242F933F934F935F936F9377
:100480007F938F939F93AF93BF93EF93FF9380914D
:10049000640090916500892B29F0E0916200F09151
:1004A00063000995FF91EF91BF91AF919F918F915B
:1004B0007F916F915F914F913F912F910F900FBE60
:1004C0000F901F9018951F920F920FB60F92112444
:1004D0002F933F934F935F936F937F938F939F934C
:1004E000AF93BF93EF93FF93809164009091650069
:1004F000892B29F0E0916000F09161000995FF914E
:10050000EF91BF91AF919F918F917F916F915F918B
:100510004F913F912F910F900FBE0F901F90189504
:04052000F894FFCF7D
:00000001FF
