:100000000C942A000C94F7030C941E040C944504E1
:100010000C9447000C9447000C9447000C94470044
:100020000C9447000C9447000C9447000C94470034
:100030000C9447000C9447000C9447000C94470024
:100040000C9447000C9447000C9447000C94470014
:100050000C94470011241FBECFE5D8E0DEBFCDBF12
:1000600010E0A0E6B0E0EEE3FDE002C005900D92E6
:10007000AA36B107D9F720E0AAE6B0E001C01D9288
:10008000AC37B207E1F70E94AB020C949D060C94CA
:10009000000080916D00873020F48F5F80936D00A9
:1000A000089510926D00089580916C008F5F809389
:1000B0006C00823019F118F4813039F066C0833059
:1000C000B1F1843009F448C060C080E090E0A8E459
:1000D000B3E48093640090936500A0936600B093AE
:1000E000670080E090E0A8E4B4E48093600090931F
:1000F0006100A0936200B0936300089580E090E0F7
:10010000A6E9B3E48093640090936500A093660031
:10011000B093670080E090E0AFE2B4E480936000C9
:1001200090936100A0936200B0936300089580E013
:1001300090E0AAEFB3E48093640090936500A093ED
:100140006600B09367008093600090936100A09375
:100150006200B0936300089580E090E0A8E4B4E406
:100160008093640090936500A0936600B09367004D
:1001700080E090E0A8E4B3E4809360009093610095
:10018000A0936200B0936300089510926C0080E029
:1001900090E0A8ECB2E48093640090936500A09393
:1001A0006600B093670080E090E0A1E6B4E480933D
:1001B000600090936100A0936200B0936300089583
:1001C00062E083E00E946F0263E083E00E946F02BE
:1001D00060E081E00E947F0261E081E00E947F0296
:1001E00062E081E00E947F0263E081E00E947F0282
:1001F0008FB780688FBF0E94CE0380936B0089E425
:1002000090E00E94E30380936A0084E590E00E94FE
:10021000F203089580916D00811111C060E081E0CA
:100220000E949F0261E081E00E949F0262E081E003
:100230000E949F0263E081E00E949F020895813046
:1002400041F560E00E948F0260916400709165004A
:1002500080916600909167000E94050560E081E052
:100260000E949F0260916000709161008091620025
:10027000909163000E94050561E081E00E949F0269
:1002800062E081E00E949F0263E081E00E949F02A1
:100290000895823069F560E081E00E948F0261E09C
:1002A00081E00E948F0260916400709165008091EE
:1002B0006600909167000E94050560E081E00E9461
:1002C0009F0261E081E00E949F0260916000709156
:1002D000610080916200909163000E94050562E0D8
:1002E00081E00E949F0263E081E00E949F020895E6
:1002F000833089F560E081E00E948F0261E081E057
:100300000E948F0262E081E00E948F02609164008F
:100310007091650080916600909167000E940505CC
:1003200060E081E00E949F0261E081E00E949F0204
:1003300062E081E00E949F02609160007091610024
:1003400080916200909163000E94050563E081E066
:100350000E949F0208958430A9F560E081E00E9428
:100360008F0261E081E00E948F0262E081E00E94E2
:100370008F0263E081E00E948F02609164007091BF
:10038000650080916600909167000E94050560E01D
:1003900081E00E949F0261E081E00E949F0262E092
:1003A00081E00E949F0263E081E00E949F026091D1
:1003B00060007091610080916200909163000E94E2
:1003C00005050895853089F560E081E00E949F026F
:1003D00061E081E00E948F0262E081E00E948F0272
:1003E00063E081E00E948F0260916400709165007B
:1003F00080916600909167000E94050561E081E0B0
:100400000E949F0262E081E00E949F0263E081E01F
:100410000E949F0260916000709161008091620073
:10042000909163000E9405050895863069F560E0AB
:1004300081E00E949F0261E081E00E949F0262E0F1
:1004400081E00E948F0263E081E00E948F02609150
:1004500064007091650080916600909167000E9431
:10046000050562E081E00E949F0263E081E00E9456
:100470009F02609160007091610080916200909194
:1004800063000E9405050895873041F560E081E032
:100490000E949F0261E081E00E949F0262E081E091
:1004A0000E949F0263E081E00E948F0260916400DD
:1004B0007091650080916600909167000E9405052B
:1004C00063E081E00E949F02609160007091610092
:1004D00080916200909163000E940505089540E0BC
:1004E0000E94B002813029F0823029F0843029F452
:1004F000089581E0089582E0089580E0089541E044
:100500000E94B002813029F0823029F0843029F431
:10051000089581E0089582E0089580E0089541E023
:100520000E943F03813029F0823029F0833029F482
:10053000089581E0089582E0089580E0089540E004
:100540000E943F03813019F0833019F4089581E04F
:10055000089580E008950E94E0000E940A01FDCF06
:10056000683008F080C0813031F138F0823009F411
:1005700040C0833009F45AC078C041110DC02AB37D
:1005800081E090E002C0880F991F6A95E2F780959C
:1005900082238ABB80E00895413009F068C02AB305
:1005A00081E090E002C0880F991F6A95E2F7822BE4
:1005B0008ABB80E0089541110DC027B381E090E02F
:1005C00002C0880F991F6A95E2F78095822387BB46
:1005D00080E00895413009F04CC027B381E090E0FD
:1005E00002C0880F991F6A95E2F7822B87BB80E0D3
:1005F000089541110DC024B381E090E002C0880F3E
:10060000991F6A95E2F78095822384BB80E0089564
:10061000413089F524B381E090E002C0880F991F32
:100620006A95E2F7822B84BB80E0089541110DC0EA
:1006300021B381E090E002C0880F991F6A95E2F72C
:100640008095822381BB80E008954130B1F421B3CD
:1006500081E090E002C0880F991F6A95E2F7822B33
:1006600081BB80E0089582E0089581E0089584E0F0
:10067000089584E0089584E0089584E00895683042
:1006800008F080C0813031F138F0823009F440C088
:10069000833009F45AC078C041110DC02BB381E0FA
:1006A00090E002C0880F991F6A95E2F78095822337
:1006B0008BBB80E00895413009F068C02BB381E026
:1006C00090E002C0880F991F6A95E2F7822B8BBBDE
:1006D00080E0089541110DC028B381E090E002C090
:1006E000880F991F6A95E2F78095822388BB80E086
:1006F0000895413009F04CC028B381E090E002C079
:10070000880F991F6A95E2F7822B88BB80E00895D5
:1007100041110DC025B381E090E002C0880F991F00
:100720006A95E2F78095822385BB80E00895413089
:1007300089F525B381E090E002C0880F991F6A9582
:10074000E2F7822B85BB80E0089541110DC022B3F2
:1007500081E090E002C0880F991F6A95E2F78095CA
:10076000822382BB80E008954130B1F422B381E05E
:1007700090E002C0880F991F6A95E2F7822B82BB36
:1007800080E0089582E0089581E0089583E008956F
:1007900083E0089583E0089583E0089585B782603B
:1007A00085BF85B78E7F85BF8BB780648BBF85B7CC
:1007B000886085BF85B78B7F85BF8BB780688BBF0F
:1007C0008091680008959C0180916800833049F40D
:1007D0002115310529F0309373002093720008959C
:1007E00082E00895909371008093700008951F92A5
:1007F0000F920FB60F9211242F933F934F935F9355
:100800006F937F938F939F93AF93BF93EF93FF93D8
:10081000E0917200F09173000995FF91EF91BF9103
:10082000AF919F918F917F916F915F914F913F9188
:100830002F910F900FBE0F901F9018951F920F923F
:100840000FB60F9211242F933F934F935F936F93A3
:100850007F938F939F93AF93BF93EF93FF93E09119
:100860007000F09171000995FF91EF91BF91AF91E8
:100870009F918F917F916F915F914F913F912F91B8
:100880000F900FBE0F901F9018951F920F920FB6EA
:100890000F9211242F933F934F935F936F937F9306
:1008A0008F939F93AF93BF93EF93FF93E0916E006D
:1008B000F0916F000995FF91EF91BF91AF919F91DA
:1008C0008F917F916F915F914F913F912F910F90F9
:1008D0000FBE0F901F9018958130F1F028F08230F4
:1008E00099F0833049F020C083B78F7B83BF83B7F3
:1008F000877F83BF84E0089583B7806483BF83B715
:10090000877F83BF84E0089583B78F7B83BF83B7DE
:10091000886083BF84E0089583B7806483BF83B712
:10092000886083BF84E0089581E00895823009F1F2
:1009300028F4882341F0813089F03CC0833021F1D4
:10094000843069F137C083B7816083BF83B78D7FFF
:1009500083BF83B78B7F83BF84E0089583B78260B2
:1009600083BF83B78E7F83BF83B78B7F83BF84E0D2
:10097000089583B7816083BF83B7826083BF83B7E5
:100980008B7F83BF84E0089583B7846083BF83B780
:100990008D7F83BF83B78E7F83BF84E0089583B745
:1009A000816083BF83B78D7F83BF83B7846083BF3C
:1009B00084E0089580E0089582BF84E00895AC014A
:1009C000009751F40FC008B600FEFDCF98B79160B4
:1009D00098BF2F5F3F4F02C020E030E0241735075B
:1009E00090F311C0892B51F00EC008B600FEFDCF68
:1009F00088B7816088BF2F5F3F4F02C020E030E0A2
:100A00002115310591F382E0089520E030E04AE7B6
:100A100054E40E94AB05609374007093750080935A
:100A20007600909377002DEB37E346E859E30E9478
:100A3000AB05609378007093790080937A0090936F
:100A40007B0080E00E946C0480E80E94DC0480E06F
:100A50000E94960420E030E040E85FE36091780077
:100A60007091790080917A0090917B000E943F05FF
:100A70000E941D06CB010E94DF0408955058BB2739
:100A8000AA270E9456050C9463060E94550638F06A
:100A90000E945C0620F039F49F3F19F426F40C9470
:100AA00052060EF4E095E7FB0C944C06E92F0E94E9
:100AB000740658F3BA17620773078407950720F086
:100AC00079F4A6F50C9496060EF4E0950B2EBA2F49
:100AD000A02D0B01B90190010C01CA01A001112444
:100AE000FF27591B99F0593F50F4503E68F11A16F0
:100AF000F040A22F232F342F4427585FF3CF469581
:100B000037952795A795F0405395C9F77EF41F16A2
:100B1000BA0B620B730B840BBAF09150A1F0FF0F6C
:100B2000BB1F661F771F881FC2F70EC0BA0F621F58
:100B3000731F841F48F4879577956795B795F79548
:100B40009E3F08F0B0CF9395880F08F09927EE0FDD
:100B50009795879508950E94BF050C9463060E949F
:100B60005C0658F00E94550640F029F45F3F29F0DA
:100B70000C944C0651110C9497060C9452060E944A
:100B8000740668F39923B1F3552391F3951B550B24
:100B9000BB27AA2762177307840738F09F5F5F4F50
:100BA000220F331F441FAA1FA9F335D00E2E3AF08F
:100BB000E0E832D091505040E695001CCAF72BD0A7
:100BC000FE2F29D0660F771F881FBB1F26173707F8
:100BD0004807AB07B0E809F0BB0B802DBF01FF272A
:100BE00093585F4F3AF09E3F510578F00C944C06B5
:100BF0000C9497065F3FE4F3983ED4F3869577957F
:100C00006795B795F7959F5FC9F7880F911D9695E2
:100C1000879597F90895E1E0660F771F881FBB1F3E
:100C2000621773078407BA0720F0621B730B840BEB
:100C3000BA0BEE1F88F7E09508950E947C0688F0B5
:100C40009F5798F0B92F9927B751B0F0E1F0660F90
:100C5000771F881F991F1AF0BA95C9F714C0B130D1
:100C600091F00E949606B1E008950C949606672FC5
:100C7000782F8827B85F39F0B93FCCF38695779500
:100C80006795B395D9F73EF49095809570956195E9
:100C90007F4F8F4F9F4F089597F99F6780E870E0CF
:100CA00060E008959FEF80EC089500240A941616E2
:100CB000170618060906089500240A94121613064A
:100CC000140605060895092E0394000C11F48823D8
:100CD00052F0BB0F40F4BF2B11F460FF04C06F5FF4
:100CE0007F4F8F4F9F4F089557FD9058440F551FCA
:100CF00059F05F3F71F04795880F97FB991F61F09E
:100D00009F3F79F087950895121613061406551F14
:100D1000F2CF4695F1DF08C0161617061806991F80
:100D2000F1CF86957105610508940895E894BB2775
:0E0D300066277727CB0197F90895F894FFCF37
:0A0D3E00000061440000C8420300F9
:00000001FF
