S00F0000737072696E74732E7372656302
S11300000C942A000C943C000C943C000C943C008E
S11300100C943C000C943C000C943C000C943C006C
S11300200C943C000C943C000C943C000C943C005C
S11300300C943C000C943C000C943C000C943C004C
S11300400C943C000C943C000C943C000C943C003C
S11300500C943C0011241FBECFE5D8E0DEBFCDBF19
S113006020E0A0E6B0E001C01D92A236B207E1F79D
S11300700E9451010C94B7020C94000061E082E0EC
S11300800E94060160E081E00E94250161E081E0B8
S11300900E94250162E081E00E94250163E081E085
S11300A00E94250141E650E061E082E00E941601D1
S11300B080916100813071F4809160008F5F809342
S11300C060002FE58AEE90E0215080409040E1F7F7
S11300D000C0000080916000813081F460E00E94E3
S11300E0350161E081E00E94450162E081E00E9407
S11300F0450163E081E00E944501D4CF823089F458
S113010060E081E00E94350161E081E00E943501F8
S113011062E081E00E94450163E081E00E944501C4
S1130120C1CF833089F460E081E00E94350161E051
S113013081E00E94350162E081E00E94350163E0C4
S113014081E00E944501AECF843089F460E081E013
S11301500E94350161E081E00E94350162E081E0A6
S11301600E94350163E081E00E9435019BCF853018
S113017089F460E081E00E94450161E081E00E9431
S1130180350162E081E00E94350163E081E00E9474
S1130190350188CF863089F460E081E00E94450112
S11301A061E081E00E94450162E081E00E94350146
S11301B063E081E00E94350175CF873089F460E007
S11301C081E00E94450161E081E00E94450162E016
S11301D081E00E94450163E081E00E94350162CF25
S11301E0883009F05FCF60E081E00E94450161E062
S11301F081E00E94450162E081E00E94450163E0E4
S113020081E00E944501109260004CCF40E00E94C2
S11302105601813029F0823029F0843029F4089580
S113022081E0089582E0089580E008950E947402B8
S1130230813029F0823029F0853029F4089581E055
S1130240089582E0089580E0089541E00E945601F7
S1130250813029F0823029F0843029F4089581E036
S1130260089582E0089580E0089541E00E94E50148
S1130270813029F0823029F0833029F4089581E017
S1130280089582E0089580E0089540E00E94E50129
S1130290813019F0833019F4089581E0089580E0E5
S11302A008950E943E0080E090E00895683008F0D0
S11302B080C0813031F138F0823009F440C083309D
S11302C009F45AC078C041110DC02AB381E090E00E
S11302D002C0880F991F6A95E2F7809582238ABB32
S11302E080E00895413009F068C02AB381E090E0CD
S11302F002C0880F991F6A95E2F7822B8ABB80E0BF
S1130300089541110DC027B381E090E002C0880F29
S1130310991F6A95E2F78095822387BB80E0089550
S1130320413009F04CC027B381E090E002C0880F4F
S1130330991F6A95E2F7822B87BB80E008954111EB
S11303400DC024B381E090E002C0880F991F6A9524
S1130350E2F78095822384BB80E00895413089F5DB
S113036024B381E090E002C0880F991F6A95E2F7F8
S1130370822B84BB80E0089541110DC021B381E03C
S113038090E002C0880F991F6A95E2F78095822356
S113039081BB80E008954130B1F421B381E090E065
S11303A002C0880F991F6A95E2F7822B81BB80E017
S11303B0089582E0089581E0089584E0089584E03A
S11303C0089584E0089584E00895683008F080C0BA
S11303D0813031F138F0823009F440C0833009F4BF
S11303E05AC078C041110DC02BB381E090E002C027
S11303F0880F991F6A95E2F7809582238BBB80E072
S11304000895413009F068C02BB381E090E002C048
S1130410880F991F6A95E2F7822B8BBB80E00895C1
S113042041110DC028B381E090E002C0880F991FEC
S11304306A95E2F78095822388BB80E00895413075
S113044009F04CC028B381E090E002C0880F991FE6
S11304506A95E2F7822B88BB80E0089541110DC0B4
S113046025B381E090E002C0880F991F6A95E2F7F6
S11304708095822385BB80E00895413089F525B3BA
S113048081E090E002C0880F991F6A95E2F7822B01
S113049085BB80E0089541110DC022B381E090E056
S11304A002C0880F991F6A95E2F78095822382BB68
S11304B080E008954130B1F422B381E090E002C0BD
S11304C0880F991F6A95E2F7822B82BB80E008951A
S11304D082E0089581E0089583E0089583E008951B
S11304E083E0089583E008956830D8F541155105F7
S11304F0D1F1813091F028F08230D9F0833029F1A4
S113050034C089B390E002C0959587956A95E2F767
S11305108170FA01808380E0089586B390E002C080
S1130520959587956A95E2F78170FA01808380E05A
S1130530089583B390E002C0959587956A95E2F794
S11305408170FA01808380E0089580B390E002C056
S1130550959587956A95E2F78170FA01808380E02A
S1130560089582E0089585E0089581E00895F8945F
S1050570FFCFB7
S9030000FC
