S00F0000737072696E74732E7372656302
S11300000C942A000C9489020C94B0020C94D7022C
S11300100C9447000C9447000C9447000C94470040
S11300200C9447000C9447000C9447000C94470030
S11300300C9447000C9447000C9447000C94470020
S11300400C9447000C9447000C9447000C94470010
S11300500C94470011241FBECFE5D8E0DEBFCDBF0E
S113006010E0A0E6B0E0E0E0F6E002C005900D92FA
S1130070A236B107D9F720E0A2E6B0E001C01D9294
S1130080AB36B207E1F70E944B010C94FE020C94CC
S1130090000080916400873020F48F5F80936400B7
S11300A0089510926400089562E083E00E940F01B5
S11300B060E081E00E941F0161E081E00E941F0175
S11300C062E081E00E941F0163E081E00E941F0161
S11300D08FB780688FBF0E946E028093630089E4AB
S11300E090E00E947A0280936200089580916400F7
S11300F0811111C060E081E00E943F0161E081E074
S11301000E943F0162E081E00E943F0163E081E0E0
S11301100E943F010895813081F460E00E942F0124
S113012061E081E00E943F0162E081E00E943F01C2
S113013063E081E00E943F010895823089F460E029
S113014081E00E942F0161E081E00E942F0162E0C2
S113015081E00E943F0163E081E00E943F01089535
S1130160833089F460E081E00E942F0161E081E046
S11301700E942F0162E081E00E942F0163E081E090
S11301800E943F010895843089F460E081E00E9478
S11301902F0161E081E00E942F0162E081E00E9472
S11301A02F0163E081E00E942F010895853089F4D6
S11301B060E081E00E943F0161E081E00E942F0144
S11301C062E081E00E942F0163E081E00E942F0140
S11301D00895863089F460E081E00E943F0161E087
S11301E081E00E943F0162E081E00E942F0163E010
S11301F081E00E942F010895873081F460E081E05E
S11302000E943F0161E081E00E943F0162E081E0E1
S11302100E943F0163E081E00E942F01089540E0C5
S11302200E945001813029F0823029F0843029F471
S1130230089581E0089582E0089580E0089541E002
S11302400E945001813029F0823029F0843029F451
S1130250089581E0089582E0089580E0089541E0E2
S11302600E94DF01813029F0823029F0833029F4A3
S1130270089581E0089582E0089580E0089540E0C3
S11302800E94DF01813019F0833019F4089581E070
S1130290089580E008950E9454000E947600FDCFE6
S11302A0683008F080C0813031F138F0823009F4D0
S11302B040C0833009F45AC078C041110DC02AB33C
S11302C081E090E002C0880F991F6A95E2F780955B
S11302D082238ABB80E00895413009F068C02AB3C4
S11302E081E090E002C0880F991F6A95E2F7822BA3
S11302F08ABB80E0089541110DC027B381E090E0EE
S113030002C0880F991F6A95E2F78095822387BB04
S113031080E00895413009F04CC027B381E090E0BB
S113032002C0880F991F6A95E2F7822B87BB80E091
S1130330089541110DC024B381E090E002C0880FFC
S1130340991F6A95E2F78095822384BB80E0089523
S1130350413089F524B381E090E002C0880F991FF1
S11303606A95E2F7822B84BB80E0089541110DC0A9
S113037021B381E090E002C0880F991F6A95E2F7EB
S11303808095822381BB80E008954130B1F421B38C
S113039081E090E002C0880F991F6A95E2F7822BF2
S11303A081BB80E0089582E0089581E0089584E0AF
S11303B0089584E0089584E0089584E00895683001
S11303C008F080C0813031F138F0823009F440C047
S11303D0833009F45AC078C041110DC02BB381E0B9
S11303E090E002C0880F991F6A95E2F780958223F6
S11303F08BBB80E00895413009F068C02BB381E0E5
S113040090E002C0880F991F6A95E2F7822B8BBB9C
S113041080E0089541110DC028B381E090E002C04E
S1130420880F991F6A95E2F78095822388BB80E044
S11304300895413009F04CC028B381E090E002C037
S1130440880F991F6A95E2F7822B88BB80E0089594
S113045041110DC025B381E090E002C0880F991FBF
S11304606A95E2F78095822385BB80E00895413048
S113047089F525B381E090E002C0880F991F6A9541
S1130480E2F7822B85BB80E0089541110DC022B3B1
S113049081E090E002C0880F991F6A95E2F7809589
S11304A0822382BB80E008954130B1F422B381E01D
S11304B090E002C0880F991F6A95E2F7822B82BBF5
S11304C080E0089582E0089581E0089583E008952E
S11304D083E0089583E0089583E0089585B78260FA
S11304E085BF85B78E7F85BF8BB780648BBF8091B6
S11304F0600008959C0180916000833049F42115C7
S1130500310529F030936A0020936900089582E050
S113051008951F920F920FB60F9211242F933F93B9
S11305204F935F936F937F938F939F93AF93BF93F7
S1130530EF93FF93E0916900F0916A000995FF91B0
S1130540EF91BF91AF919F918F917F916F915F9147
S11305504F913F912F910F900FBE0F901F901895C0
S11305601F920F920FB60F9211242F933F934F9324
S11305705F936F937F938F939F93AF93BF93EF9307
S1130580FF93E0916700F09168000995FF91EF9166
S1130590BF91AF919F918F917F916F915F914F9197
S11305A03F912F910F900FBE0F901F9018951F929F
S11305B00F920FB60F9211242F933F934F935F9393
S11305C06F937F938F939F93AF93BF93EF93FF9317
S11305D0E0916500F09166000995FF91EF91BF915C
S11305E0AF919F918F917F916F915F914F913F91C7
S11305F02F910F900FBE0F901F901895F894FFCF76
S10506000300F1
S9030000FC
